{
  "contractName": "Valuation",
  "abi": [
    {
      "inputs": [],
      "stateMutability": "nonpayable",
      "type": "constructor"
    },
    {
      "inputs": [],
      "name": "administrator",
      "outputs": [
        {
          "internalType": "address",
          "name": "",
          "type": "address"
        }
      ],
      "stateMutability": "view",
      "type": "function",
      "constant": true
    },
    {
      "inputs": [
        {
          "internalType": "bytes32",
          "name": "",
          "type": "bytes32"
        }
      ],
      "name": "products",
      "outputs": [
        {
          "internalType": "bytes32",
          "name": "productHash",
          "type": "bytes32"
        },
        {
          "internalType": "bool",
          "name": "exists",
          "type": "bool"
        },
        {
          "internalType": "bool",
          "name": "haveFinalPrice",
          "type": "bool"
        },
        {
          "internalType": "bool",
          "name": "inValuation",
          "type": "bool"
        },
        {
          "internalType": "uint256",
          "name": "finalPrice",
          "type": "uint256"
        },
        {
          "internalType": "string",
          "name": "name",
          "type": "string"
        },
        {
          "internalType": "uint256",
          "name": "evaluatorsCount",
          "type": "uint256"
        },
        {
          "internalType": "uint256",
          "name": "timeEnd",
          "type": "uint256"
        }
      ],
      "stateMutability": "view",
      "type": "function",
      "constant": true
    },
    {
      "inputs": [
        {
          "internalType": "address",
          "name": "",
          "type": "address"
        }
      ],
      "name": "users",
      "outputs": [
        {
          "internalType": "bool",
          "name": "registered",
          "type": "bool"
        },
        {
          "internalType": "string",
          "name": "name",
          "type": "string"
        },
        {
          "internalType": "uint256",
          "name": "userDeviation",
          "type": "uint256"
        },
        {
          "internalType": "uint256",
          "name": "sessionJoined",
          "type": "uint256"
        }
      ],
      "stateMutability": "view",
      "type": "function",
      "constant": true
    },
    {
      "inputs": [
        {
          "internalType": "string",
          "name": "name",
          "type": "string"
        }
      ],
      "name": "register",
      "outputs": [],
      "stateMutability": "nonpayable",
      "type": "function"
    },
    {
      "inputs": [
        {
          "internalType": "bytes32",
          "name": "productHash",
          "type": "bytes32"
        },
        {
          "internalType": "string",
          "name": "name",
          "type": "string"
        }
      ],
      "name": "createProduct",
      "outputs": [],
      "stateMutability": "nonpayable",
      "type": "function"
    },
    {
      "inputs": [
        {
          "internalType": "bytes32",
          "name": "productHash",
          "type": "bytes32"
        },
        {
          "internalType": "uint256",
          "name": "timeSet",
          "type": "uint256"
        }
      ],
      "name": "createValuation",
      "outputs": [],
      "stateMutability": "nonpayable",
      "type": "function"
    },
    {
      "inputs": [
        {
          "internalType": "bytes32",
          "name": "productHash",
          "type": "bytes32"
        },
        {
          "internalType": "uint256",
          "name": "price",
          "type": "uint256"
        }
      ],
      "name": "addPrice",
      "outputs": [],
      "stateMutability": "nonpayable",
      "type": "function"
    },
    {
      "inputs": [
        {
          "internalType": "bytes32",
          "name": "productHash",
          "type": "bytes32"
        }
      ],
      "name": "caculateFinalPrice",
      "outputs": [
        {
          "internalType": "uint256",
          "name": "finalPrice",
          "type": "uint256"
        }
      ],
      "stateMutability": "nonpayable",
      "type": "function"
    },
    {
      "inputs": [
        {
          "internalType": "bytes32",
          "name": "productHash",
          "type": "bytes32"
        }
      ],
      "name": "closeValuation",
      "outputs": [],
      "stateMutability": "nonpayable",
      "type": "function"
    },
    {
      "inputs": [
        {
          "internalType": "address",
          "name": "account",
          "type": "address"
        }
      ],
      "name": "isAdministrator",
      "outputs": [
        {
          "internalType": "bool",
          "name": "",
          "type": "bool"
        }
      ],
      "stateMutability": "view",
      "type": "function",
      "constant": true
    }
  ],
  "bytecode": "0x608060405234801561001057600080fd5b50600280546001600160a01b031916331790556116d2806100326000396000f3fe608060405234801561001057600080fd5b506004361061009e5760003560e01c806370a5b8bc1161006657806370a5b8bc14610127578063790543911461013a578063a87430ba14610161578063f2c298be14610184578063f53d0a8e146101975761009e565b8063097d1dce146100a35780630a2eb301146100cc5780630cc68e97146100ec578063381d4c75146101015780633bb691f114610114575b600080fd5b6100b66100b1366004611063565b6101ac565b6040516100c391906115a3565b60405180910390f35b6100df6100da366004611035565b610419565b6040516100c39190611173565b6100ff6100fa366004611063565b61042d565b005b6100ff61010f3660046110c0565b610516565b6100ff61012236600461107b565b6105f3565b6100ff6101353660046110c0565b610778565b61014d610148366004611063565b61099d565b6040516100c39897969594939291906111ac565b61017461016f366004611035565b610a72565b6040516100c3949392919061117e565b6100ff6101923660046110e1565b610b27565b61019f610be8565b6040516100c3919061115f565b6002546000906001600160a01b031633146101e25760405162461bcd60e51b81526004016101d99061146e565b60405180910390fd5b6000828152600160208190526040909120015460ff166102145760405162461bcd60e51b81526004016101d9906111fc565b6000828152600160208190526040909120015462010000900460ff1661024c5760405162461bcd60e51b81526004016101d990611352565b60008060005b6000858152600160205260409020600401548110156103a257600085815260016020526040812060060180548291908490811061029f57634e487b7160e01b600052603260045260246000fd5b60009182526020808320909101546001600160a01b031683528201929092526040019020600201546102d2906064611603565b600086815260016020526040902060050180548390811061030357634e487b7160e01b600052603260045260246000fd5b906000526020600020015461031891906115e4565b61032290846115ac565b925060008060016000888152602001908152602001600020600601838154811061035c57634e487b7160e01b600052603260045260246000fd5b60009182526020808320909101546001600160a01b0316835282019290925260400190206002015461038e90836115ac565b91508061039a81611655565b915050610252565b5060008481526001602052604090206004015481906103c29060646115e4565b6103cc9190611603565b6103d690836115c4565b600085815260016020526040902060028101919091556004015481906103fd9060646115e4565b6104079190611603565b61041190836115c4565b949350505050565b6002546001600160a01b0390811691161490565b6002546001600160a01b031633146104575760405162461bcd60e51b81526004016101d99061122c565b6000818152600160208190526040909120015460ff166104895760405162461bcd60e51b81526004016101d9906114f0565b6000818152600160208190526040909120015462010000900460ff166104c15760405162461bcd60e51b81526004016101d990611527565b6000818152600160205260409020600201546104ef5760405162461bcd60e51b81526004016101d9906112ff565b6104f881610bf7565b600090815260016020819052604090912001805462ff000019169055565b6002546001600160a01b031633146105405760405162461bcd60e51b81526004016101d9906113f0565b6000828152600160208190526040909120015460ff166105725760405162461bcd60e51b81526004016101d9906111fc565b6000828152600160208190526040909120015462010000900460ff16156105ab5760405162461bcd60e51b81526004016101d9906114b9565b600082815260016020819052604090912001805462ff000019166201000017905580156105ef576105dc81426115ac565b6000838152600160205260409020600701555b5050565b6002546001600160a01b0316331461061d5760405162461bcd60e51b81526004016101d99061155e565b6000828152600160208190526040909120015460ff16156106505760405162461bcd60e51b81526004016101d9906113c0565b604080516101408101825283815260016020808301828152600084860181815260608087018381526080880184815260a089018b815260c08a0186905260e08a01849052610100808b018590526101208b018790528d87528989529a86208a5181559651878a0180549651945160ff19979097169115159190911761ff001916931515909b029290921762ff000019166201000094151594909402939093179098559051600284015595518051949691958695869586958594909261071b9260038501920190610e8c565b5060c0820151600482015560e08201518051610741916005840191602090910190610f10565b50610100820151805161075e916006840191602090910190610f4a565b506101208201518160070155905050505050505050505050565b3360009081526020819052604090205460ff166107a75760405162461bcd60e51b81526004016101d99061129b565b6000828152600160208190526040909120015460ff166107d95760405162461bcd60e51b81526004016101d9906111fc565b6000828152600160208190526040909120015462010000900460ff166108115760405162461bcd60e51b81526004016101d9906112c8565b60008281526001602052604090206007015442108061083f5750600082815260016020526040902060070154155b61085b5760405162461bcd60e51b81526004016101d990611389565b6000828152600160205260408120600401548190156109065760008481526001602052604090206006018054829081106108a557634e487b7160e01b600052603260045260246000fd5b6000918252602090912001546001600160a01b03163314156109065760008481526001602052604090206005018054849190839081106108f557634e487b7160e01b600052603260045260246000fd5b600091825260209091200155600191505b508061099857600083815260016020526040812060040180549161092983611655565b9091555050600083815260016020818152604080842060068101805480860182559086528386200180546001600160a01b031916339081179091556005909101805494850181558552828520909301869055918352829052812060030180549161099283611655565b91905055505b505050565b6001602081905260009182526040909120805491810154600282015460038301805460ff808516956101008604821695620100009004909116939290916109e39061161a565b80601f0160208091040260200160405190810160405280929190818152602001828054610a0f9061161a565b8015610a5c5780601f10610a3157610100808354040283529160200191610a5c565b820191906000526020600020905b815481529060010190602001808311610a3f57829003601f168201915b5050505050908060040154908060070154905088565b6000602081905290815260409020805460018201805460ff9092169291610a989061161a565b80601f0160208091040260200160405190810160405280929190818152602001828054610ac49061161a565b8015610b115780601f10610ae657610100808354040283529160200191610b11565b820191906000526020600020905b815481529060010190602001808311610af457829003601f168201915b5050505050908060020154908060030154905084565b3360009081526020819052604090205460ff1615610b575760405162461bcd60e51b81526004016101d990611437565b6000815111610b785760405162461bcd60e51b81526004016101d990611273565b60408051608081018252600180825260208083018581526000848601819052606085018190523381528083529485208451815460ff1916901515178155905180518695949293610bcc938501920190610e8c565b5060408201516002820155606090910151600390910155505050565b6002546001600160a01b031681565b600081815260016020526040812060020154905b600083815260016020526040902060040154811015610998576000806000806000600160008981526020019081526020016000206006018681548110610c6157634e487b7160e01b600052603260045260246000fd5b60009182526020808320909101546001600160a01b031683528281019390935260409182018120600201548982526001909352908120600601805492935090918291829188908110610cc357634e487b7160e01b600052603260045260246000fd5b60009182526020808320909101546001600160a01b031683528281019390935260409182018120600301548a82526001909352206005018054919250879187908110610d1f57634e487b7160e01b600052603260045260246000fd5b90600052602060002001541015610d7e576000878152600160205260409020600501805486908110610d6157634e487b7160e01b600052603260045260246000fd5b906000526020600020015486610d779190611603565b9350610dca565b6000878152600160205260409020600501805487919087908110610db257634e487b7160e01b600052603260045260246000fd5b9060005260206000200154610dc79190611603565b93505b600086610dd88660646115e4565b610de291906115c4565b9050610def8260016115ac565b81610dfa84866115e4565b610e0491906115ac565b610e0e91906115c4565b935083600080600160008c81526020019081526020016000206006018981548110610e4957634e487b7160e01b600052603260045260246000fd5b60009182526020808320909101546001600160a01b0316835282019290925260400190206002015550849350610e8492508391506116559050565b915050610c0b565b828054610e989061161a565b90600052602060002090601f016020900481019282610eba5760008555610f00565b82601f10610ed357805160ff1916838001178555610f00565b82800160010185558215610f00579182015b82811115610f00578251825591602001919060010190610ee5565b50610f0c929150610f9f565b5090565b828054828255906000526020600020908101928215610f005791602002820182811115610f00578251825591602001919060010190610ee5565b828054828255906000526020600020908101928215610f00579160200282015b82811115610f0057825182546001600160a01b0319166001600160a01b03909116178255602090920191600190910190610f6a565b5b80821115610f0c5760008155600101610fa0565b600082601f830112610fc4578081fd5b813567ffffffffffffffff80821115610fdf57610fdf611686565b604051601f8301601f19168101602001828111828210171561100357611003611686565b60405282815284830160200186101561101a578384fd5b82602086016020830137918201602001929092529392505050565b600060208284031215611046578081fd5b81356001600160a01b038116811461105c578182fd5b9392505050565b600060208284031215611074578081fd5b5035919050565b6000806040838503121561108d578081fd5b82359150602083013567ffffffffffffffff8111156110aa578182fd5b6110b685828601610fb4565b9150509250929050565b600080604083850312156110d2578182fd5b50508035926020909101359150565b6000602082840312156110f2578081fd5b813567ffffffffffffffff811115611108578182fd5b61041184828501610fb4565b60008151808452815b818110156111395760208185018101518683018201520161111d565b8181111561114a5782602083870101525b50601f01601f19169290920160200192915050565b6001600160a01b0391909116815260200190565b901515815260200190565b60008515158252608060208301526111996080830186611114565b6040830194909452506060015292915050565b60006101008a83528915156020840152881515604084015287151560608401528660808401528060a08401526111e481840187611114565b60c0840195909552505060e001529695505050505050565b602080825260169082015275141c9bd91d58dd08191bd95cc81b9bdd08195e1a5cdd60521b604082015260600190565b60208082526027908201527f4f6e6c792061646d696e6973747261746f722063616e20636c6f73652076616c604082015266756174696f6e2160c81b606082015260800190565b6020808252600e908201526d796f7572206e616d652c20706c7360901b604082015260600190565b602080825260139082015272155cd95c881b9bdd081c9959da5cdd195c9959606a1b604082015260600190565b60208082526019908201527f50726f64756374206d75737420696e2076616c756174696f6e00000000000000604082015260600190565b60208082526033908201527f506c7320636163756c6174652066696e616c5072696365206265666f726520636040820152726c6f7365207468652076616c756174696f6e2160681b606082015260800190565b6020808252601d908201527f6e6f2076616c756174696f6e20666f7220746869732070726f64756374000000604082015260600190565b6020808252601a908201527f56616c756174696f6e20706572696f642068617320656e646564000000000000604082015260600190565b60208082526016908201527550726f6475637420616c72656164792065786973747360501b604082015260600190565b60208082526027908201527f4f6e6c792061646d696e6973747261746f722063616e20637265617465205661604082015266363ab0ba34b7b760c91b606082015260800190565b60208082526017908201527f5573657220616c72656164792072656769737465726564000000000000000000604082015260600190565b6020808252602b908201527f4f6e6c792061646d696e6973747261746f722063616e20636163756c6174652060408201526a66696e616c20707269636560a81b606082015260800190565b6020808252601a908201527f50726f64756374207374696c6c20696e2076616c756174696f6e000000000000604082015260600190565b60208082526017908201527f50726f6475637420646f6573206e6f7420657869737421000000000000000000604082015260600190565b6020808252601e908201527f6e6f2076616c756174696f6e20666f7220746869732070726f64756374210000604082015260600190565b60208082526025908201527f4f6e6c792061646d696e6973747261746f722063616e206372656174652070726040820152641bd91d58dd60da1b606082015260800190565b90815260200190565b600082198211156115bf576115bf611670565b500190565b6000826115df57634e487b7160e01b81526012600452602481fd5b500490565b60008160001904831182151516156115fe576115fe611670565b500290565b60008282101561161557611615611670565b500390565b60028104600182168061162e57607f821691505b6020821081141561164f57634e487b7160e01b600052602260045260246000fd5b50919050565b600060001982141561166957611669611670565b5060010190565b634e487b7160e01b600052601160045260246000fd5b634e487b7160e01b600052604160045260246000fdfea2646970667358221220a2d5dfe6fd59b3528aa8c3bc09c9cf66ab03e677042e59f092df77cc7d294b1564736f6c63430008000033",
  "immutableReferences": {},
  "source": "//SPDX-License-Identifier: MIT\r\npragma solidity ^0.8.0;\r\n\r\ncontract Valuation {\r\n    // Cu trc ca 1 User\r\n    struct User {\r\n        bool registered;\r\n        string name;\r\n        uint userDeviation;\r\n        uint sessionJoined;\r\n    }\r\n    // Cu trc ca 1 product\r\n    struct Product {\r\n        bytes32 productHash;\r\n        bool exists;\r\n        bool haveFinalPrice;\r\n        bool inValuation;\r\n        uint finalPrice;\r\n        string name;\r\n        uint evaluatorsCount;\r\n        uint[] prices;\r\n        address[] evaluators;\r\n        uint timeEnd;\r\n    }\r\n\r\n    mapping(address => User) public users;\r\n    mapping(bytes32 => Product) public products;\r\n\r\n    address public administrator;\r\n\r\n    // Ch c mt qun tr vin.\r\n    constructor() {\r\n        administrator = msg.sender;\r\n    }\r\n    // Ngi tham gia phi ng k  s dng ng dng.\r\n    function register(string memory name) public {\r\n        require(!users[msg.sender].registered, \"User already registered\");\r\n        require(bytes(name).length > 0, \"your name, pls\"); //yu cu khng  trng tn\r\n        uint userDeviation = 0;\r\n        uint sessionJoined = 0;\r\n        users[msg.sender] = User(true, name, userDeviation, sessionJoined);\r\n    }\r\n\r\n    // Ch qun tr vin mi c th to sn phm.\r\n    function createProduct(bytes32 productHash, string memory name) public {\r\n        require(msg.sender == administrator, \"Only administrator can create product\");\r\n        require(!products[productHash].exists, \"Product already exists\");\r\n        bool exists = true;\r\n        bool haveFinalPrice = false;\r\n        bool inValuation = false;\r\n        uint finalPrice = 0;\r\n        uint evaluatorsCount = 0;\r\n        uint[] memory _prices;\r\n        address[] memory _evaluators;\r\n        products[productHash] = Product(productHash, exists, haveFinalPrice, inValuation, finalPrice, name, evaluatorsCount,  _prices, _evaluators, 0);\r\n    }\r\n\r\n    // Ch qun tr vin mi c th to phin nh gi.\r\n    function createValuation(bytes32 productHash, uint timeSet) public {\r\n        require(msg.sender == administrator, \"Only administrator can create Valuation\");\r\n        require(products[productHash].exists, \"Product does not exist\");\r\n        require(!products[productHash].inValuation, \"Product still in valuation\");\r\n        products[productHash].inValuation = true;\r\n        if(timeSet != 0) {\r\n            products[productHash].timeEnd = block.timestamp + timeSet;\r\n        }\r\n    }\r\n\r\n    /* Mt ngi tham gia c th nh gi nhiu hn mt sn phm nu phin vn m. \r\n    Gi a ra mi nht s c s dng. */\r\n    function addPrice(bytes32 productHash, uint price) public {\r\n        require(users[msg.sender].registered, \"User not registered\");\r\n        require(products[productHash].exists, \"Product does not exist\");\r\n        require(products[productHash].inValuation, \"Product must in valuation\");\r\n        require(block.timestamp < products[productHash].timeEnd || products[productHash].timeEnd == 0, \"Valuation period has ended\");\r\n        bool check = false;\r\n        for (uint j = 0; j < products[productHash].evaluatorsCount; j++){\r\n            if(msg.sender == products[productHash].evaluators[j]){\r\n                products[productHash].prices[j] = price;\r\n                check = true;\r\n            }         \r\n            break;\r\n        }\r\n        if(!check) {\r\n            products[productHash].evaluatorsCount ++;\r\n            products[productHash].evaluators.push(msg.sender);\r\n            products[productHash].prices.push(price);\r\n            users[msg.sender].sessionJoined ++;\r\n        }\r\n    }\r\n\r\n    /*Gi  xut cho mt sn phm s c tnh ton da trn tt c cc mc gi  cho trong \r\n    phin v  lch chung ca ngi tham gia.*/\r\n    function caculateFinalPrice(bytes32 productHash) public returns (uint finalPrice) {\r\n        require(msg.sender == administrator, \"Only administrator can caculate final price\");\r\n        require(products[productHash].exists, \"Product does not exist\");\r\n        require(products[productHash].inValuation, \"no valuation for this product\");\r\n        uint A = 0;\r\n        uint B = 0;\r\n        for (uint j = 0; j < products[productHash].evaluatorsCount; j++){\r\n            A += products[productHash].prices[j] * (100 - users[products[productHash].evaluators[j]].userDeviation);\r\n            B += users[products[productHash].evaluators[j]].userDeviation; \r\n        }\r\n        products[productHash].finalPrice = (A) / (100 * products[productHash].evaluatorsCount - B);\r\n        finalPrice = (A) / (100 * products[productHash].evaluatorsCount - B);\r\n    }\r\n/*ng dng duy tr mt gi tr  lch chung cho mi ngi tham gia.  lch chung c \r\n    tch ly t  lch gia gi nht nh ca anh y v gi cui cng t mi phin nh gi.*/\r\n    function newUserDeviation(bytes32 productHash) private {\r\n        uint P = products[productHash].finalPrice;      \r\n        for (uint j = 0; j < products[productHash].evaluatorsCount; j++){\r\n            uint dNew;\r\n            uint d;\r\n            uint dCurrent = users[products[productHash].evaluators[j]].userDeviation;\r\n            uint n = users[products[productHash].evaluators[j]].sessionJoined;\r\n            if(products[productHash].prices[j] < P){\r\n                dNew = P - products[productHash].prices[j];\r\n            }\r\n            else{\r\n                dNew = products[productHash].prices[j] - P;\r\n            }\r\n            uint dNew1 = (dNew * 100) / P;\r\n            d = (dCurrent * n + dNew1) / (n + 1);\r\n            users[products[productHash].evaluators[j]].userDeviation = d;\r\n        }\r\n    }\r\n\r\n    // Ch qun tr vin mi c th ng phin nh gi.\r\n    function closeValuation(bytes32 productHash) public {\r\n        require(msg.sender == administrator, \"Only administrator can close valuation!\");\r\n        require(products[productHash].exists, \"Product does not exist!\");\r\n        require(products[productHash].inValuation, \"no valuation for this product!\");\r\n        // thm yu cu tnh gi cui cng trc khi ng phin\r\n        require(products[productHash].finalPrice != 0, \"Pls caculate finalPrice before close the valuation!\");\r\n        newUserDeviation(productHash);\r\n        products[productHash].inValuation = false; \r\n    }\r\n    \r\n    // Hm check admin. (D)\r\n    function isAdministrator(address account) public view returns (bool) {\r\n        return account == administrator;\r\n    }\r\n}",
  "sourcePath": "D:\\workspace-dev\\workpace-solidity\\appweb_blockchain\\contracts\\Valuation.sol",
  "compiler": {
    "name": "solc",
    "version": "0.8.0+commit.c7dfd78e.Emscripten.clang"
  },
  "schemaVersion": "3.4.13",
  "updatedAt": "2023-03-19T12:02:44.407Z",
  "networkType": "ethereum",
  "devdoc": {
    "kind": "dev",
    "methods": {},
    "version": 1
  },
  "userdoc": {
    "kind": "user",
    "methods": {},
    "version": 1
  }
}